:020000040800F2
:10000000002800208108000831080008370800088F
:100010003D080008430800084908000800000000E7
:100020000000000000000000000000004F08000871
:100030005B0800080000000067080008CD07000802
:10004000C9080008C9080008C9080008C90800084C
:10005000C9080008C90800084D010008710100081E
:1000600095010008B9010008DD010008C908000871
:10007000C9080008C9080008C9080008C90800081C
:10008000C9080008C9080008C9080008C90800080C
:10009000C9080008C9080008C9080008C9080008FC
:1000A000C9080008C9080008C9080008C9080008EC
:1000B000C9080008C908000800000000C9080008B5
:1000C000C90800080000000000000000C90800087E
:1000D00000000000C9080008C9080008000000006E
:1000E000C9080008C9080008C90800080000000085
:1000F0000000000000000000000000000000000000
:0C01000000000000000000005FF808F1A3
:10010C0010B5054C237833B9044B13B10448AFF345
:10011C0000800123237010BD0000002000000000AF
:10012C001409000808B5034B1BB103490348AFF38E
:10013C00008008BD00000000040000201409000825
:10014C0080B500AF054B1B689847054B5B69044AAB
:10015C0043F00103536100BF80BD00BF1C000020B1
:10016C000004014080B500AF054B5B689847054B18
:10017C005B69044A43F00203536100BF80BD00BFBA
:10018C001C0000200004014080B500AF054B9B68AB
:10019C009847054B5B69044A43F00403536100BF65
:1001AC0080BD00BF1C0000200004014080B500AFE2
:1001BC00054BDB689847054B5B69044A43F0080321
:1001CC00536100BF80BD00BF1C0000200004014033
:1001DC0080B500AF054B1B699847054B5B69044A1A
:1001EC0043F01003536100BF80BD00BF1C00002012
:1001FC000004014080B483B000AF0346FB710B4692
:10020C00BB7113467B71FB79022B7AD0022B00F366
:10021C00B180002B02D0012B3AD0ABE0BB79072B7D
:10022C0017D85A4B1B68BA7992000F2101FA02F2C7
:10023C00D2431146554A0B401360544B1B687979D5
:10024C00BA79920001FA02F21146504A0B4313603C
:10025C0092E0BB790F2B00F28F80BB79083BBB710E
:10026C004B4B1B68BA7992000F2101FA02F2D24370
:10027C001146474A0B401360454B1B687979BA7994
:10028C00920001FA02F21146414A0B43136073E0EB
:10029C00BB79072B17D83F4B1B68BA7992000F21FB
:1002AC0001FA02F2D24311463A4A0B401360394B21
:1002BC001B687979BA79920001FA02F21146354A33
:1002CC000B4313605AE0BB790F2B57D8BB79083B13
:1002DC00BB71314B1B68BA7992000F2101FA02F203
:1002EC00D24311462C4A0B4013602B4B1B68797977
:1002FC00BA79920001FA02F21146274A0B431360B5
:10030C003CE0BB79072B17D8244B1B68BA799200B9
:10031C000F2101FA02F2D2431146204A0B4013601E
:10032C001E4B1B687979BA79920001FA02F21146D8
:10033C001A4A0B43136023E0BB790F2B20D8BB79EF
:10034C00083BBB71164B1B68BA7992000F2101FA5E
:10035C0002F2D2431146124A0B401360104B1B6839
:10036C007979BA79920001FA02F211460C4A0B43E0
:10037C00136005E000BF04E000BF02E000BF00E036
:10038C0000BF00BF0C37BD4680BC70470008014061
:10039C0004080140000C0140040C01400010014015
:1003AC000410014080B483B000AF0346FB710B46D0
:1003BC00BB7113467B71BB790F2B67D8FB79022B72
:1003CC0040D0022B5BDC002B02D0012B1DD056E061
:1003DC007B79012B0AD1304B1B68BA79012101FAC8
:1003EC0002F211462C4A0B4313604AE07B79002B36
:1003FC0047D1294B1B68BA79012101FA02F2D24389
:10040C001146254A0B4013603BE07B79012B0AD146
:10041C00224B1B68BA79012101FA02F211461F4ADC
:10042C000B4313602FE07B79002B2CD11B4B1B68EB
:10043C00BA79012101FA02F2D2431146174A0B4054
:10044C00136020E07B79012B0AD1154B1B68BA791C
:10045C00012101FA02F21146114A0B43136014E018
:10046C007B79002B11D10E4B1B68BA79012101FA53
:10047C0002F2D24311460A4A0B40136005E000BF5A
:10048C0004E000BF02E000BF00E000BF00BF0C377B
:10049C00BD4680BC704700BF0C0801400C0C0140ED
:1004AC000C10014080B483B000AF03463960FB717F
:1004BC00FB79022B0ED0022B10DC002B02D0012B6F
:1004CC0004D00BE0084A3B68136007E0074A3B681E
:1004DC00136003E0064A3B68136000BF00BF0C3793
:1004EC00BD4680BC704700BF0C0801400C0C01409D
:1004FC000C10014080B582B000AF0346FB710022A6
:10050C0000210120FFF74EFF002201210120FFF7FF
:10051C0049FF012203210120FFF744FFFB79194613
:10052C000020FFF7BFFF002203210120FFF73AFF55
:10053C0000BF0837BD4680BD80B582B000AF034612
:10054C00FB71012200210120FFF72CFF0022012169
:10055C000120FFF727FF012203210120FFF722FFD3
:10056C00FB7919460020FFF79DFF00220321012093
:10057C00FFF718FF00BF0837BD4680BD80B500AF40
:10058C00012200210120FFF735FE0122012101206B
:10059C00FFF730FE012203210120FFF72BFE012281
:1005AC0000210020FFF726FE012201210020FFF789
:1005BC0021FE012202210020FFF71CFE0122032153
:1005CC000020FFF717FE012204210020FFF712FE86
:1005DC00012205210020FFF70DFE0122062100203B
:1005EC00FFF708FE012207210020FFF703FE1A483F
:1005FC0000F0B8F8184800F0B5F8174800F0B2F859
:10060C00154800F0AFF8144800F0ACF8124800F0B0
:10061C00A9F83820FFF76EFF0F4800F0A3F80E483A
:10062C0000F0A0F80F20FFF765FF0B4800F09AF8D8
:10063C00094800F097F80120FFF75CFF064800F02E
:10064C0091F8054800F08EF8034800F08BF806206E
:10065C00FFF750FF00BF80BD0024F40080B400AF52
:10066C00044B81221A60044B00221A6000BFBD4665
:10067C0080BC7047001002400410024080B483B06C
:10068C0000AF03460A46FB711346BB71BB791F2BA7
:10069C002AD8FB79022B1CD0022B25DC002B02D094
:1006AC00012B0BD020E0134B1B68BA79012101FA06
:1006BC0002F211460F4A0B43136015E00E4B1B68F8
:1006CC00BA79012101FA02F211460B4A0B4313606D
:1006DC000AE00A4B1B68BA79012101FA02F21146B1
:1006EC00064A0B43136000BF00BF0C37BD4680BCED
:1006FC00704700BF141002401C100240181002403A
:10070C0080B400AF0A4B1B68094A23F00103136045
:10071C00074B1B68064A23F004031360044B1B6849
:10072C00034A43F00203136000BFBD4680BC704710
:10073C0010E000E080B400AF094B00221A60084BB7
:10074C0000229A60064B00225A60054B1B68044A33
:10075C0023F48033136000BFBD4680BC704700BFDC
:10076C0010E000E080B485B000AF78607B68114A7F
:10077C0002FB03F3104AA2FB03239B0CFB600F4A02
:10078C00FB6853600D4B1B680C4A43F0010313606C
:10079C0000BF0A4B1B6803F48033002BF9D0074BC6
:1007AC001B68064A23F00103136000BF1437BD46D3
:1007BC0080BC704740420F0083DE1B4310E000E01A
:1007CC0080B500AF0A4B1B68002B0ED0094B1B7871
:1007DC00002B01D1FFF7AEFF054B1B689847064B6A
:1007EC001B68054A23F48033136000BF80BD00BF33
:1007FC005C0000206000002010E000E080B500AF3D
:10080C00FFF72CFF02210220FFF738FF0321022003
:10081C00FFF734FFFFF774FFFFF7B0FE6120FFF71F
:10082C008BFEFEE780B400AFFEE780B400AFFEE7BE
:10083C0080B400AFFEE780B400AFFEE780B400AF39
:10084C00FEE780B400AF00BFBD4680BC704780B4EB
:10085C0000AF00BFBD4680BC704780B400AF00BF86
:10086C00BD4680BC704780B400AF00BFBD4680BCA5
:10087C0070470000FFF7F7FF0B480C490C4A0023A8
:10088C0002E0D458C4500433C4188C42F9D3094A3A
:10089C00094C002301E013600432A242FBD300F0A8
:1008AC000FF8FFF7ABFF704700000020000000209E
:1008BC00340900080000002064000020FEE700005E
:1008CC0070B500260C4D0D4C641BA410A64209D12A
:1008DC0000F01AF800260A4D0A4C641BA410A6421C
:1008EC0005D170BD55F8043B98470136EEE755F835
:1008FC00043B98470136F2E72C0900082C09000844
:10090C002C09000830090008F8B500BFF8BC08BC79
:10091C009E467047F8B500BFF8BC08BC9E467047B1
:04092C00310100088D
:040930000D010008AD
:040000050800088166
:00000001FF
