:020000040800F2
:100000000028002091060008410600084706000865
:100010004D060008530600085906000800000000BD
:100020000000000000000000000000005F06000863
:100030006B0600080000000077060008C5050008F0
:10004000D9060008D9060008D9060008D906000814
:10005000D9060008D90600084D0100087101000802
:1000600095010008B9010008DD010008D906000863
:10007000D9060008D9060008D9060008D9060008E4
:10008000D9060008D9060008D9060008D9060008D4
:10009000D9060008D9060008D9060008D9060008C4
:1000A000D9060008D9060008D9060008D9060008B4
:1000B000D9060008D906000800000000D90600088B
:1000C000D90600080000000000000000D906000862
:1000D00000000000D9060008D90600080000000052
:1000E000D9060008D9060008D9060008000000005B
:1000F0000000000000000000000000000000000000
:0C01000000000000000000005FF808F1A3
:10010C0010B5054C237833B9044B13B10448AFF345
:10011C0000800123237010BD0000002000000000AF
:10012C002407000808B5034B1BB103490348AFF380
:10013C00008008BD00000000040000202407000817
:10014C0080B500AF054B1B689847054B5B69044AAB
:10015C0043F00103536100BF80BD00BF1C000020B1
:10016C000004014080B500AF054B5B689847054B18
:10017C005B69044A43F00203536100BF80BD00BFBA
:10018C001C0000200004014080B500AF054B9B68AB
:10019C009847054B5B69044A43F00403536100BF65
:1001AC0080BD00BF1C0000200004014080B500AFE2
:1001BC00054BDB689847054B5B69044A43F0080321
:1001CC00536100BF80BD00BF1C0000200004014033
:1001DC0080B500AF054B1B699847054B5B69044A1A
:1001EC0043F01003536100BF80BD00BF1C00002012
:1001FC000004014080B485B000AF0346FB800023AF
:10020C00FB810DE00023BB8103E000BFBB89013300
:10021C00BB81BA89FB889A42F7D3FB890133FB81F6
:10022C00FA89FB889A42EDD300BF00BF1437BD4654
:10023C0080BC704780B483B000AF0346FB710B46A3
:10024C00BB7113467B71FB79022B7AD0022B00F326
:10025C00B180002B02D0012B3AD0ABE0BB79072B3D
:10026C0017D85A4B1B68BA7992000F2101FA02F287
:10027C00D2431146554A0B401360544B1B68797995
:10028C00BA79920001FA02F21146504A0B431360FC
:10029C0092E0BB790F2B00F28F80BB79083BBB71CE
:1002AC004B4B1B68BA7992000F2101FA02F2D24330
:1002BC001146474A0B401360454B1B687979BA7954
:1002CC00920001FA02F21146414A0B43136073E0AB
:1002DC00BB79072B17D83F4B1B68BA7992000F21BB
:1002EC0001FA02F2D24311463A4A0B401360394BE1
:1002FC001B687979BA79920001FA02F21146354AF3
:10030C000B4313605AE0BB790F2B57D8BB79083BD2
:10031C00BB71314B1B68BA7992000F2101FA02F2C2
:10032C00D24311462C4A0B4013602B4B1B68797936
:10033C00BA79920001FA02F21146274A0B43136074
:10034C003CE0BB79072B17D8244B1B68BA79920079
:10035C000F2101FA02F2D2431146204A0B401360DE
:10036C001E4B1B687979BA79920001FA02F2114698
:10037C001A4A0B43136023E0BB790F2B20D8BB79AF
:10038C00083BBB71164B1B68BA7992000F2101FA1E
:10039C0002F2D2431146124A0B401360104B1B68F9
:1003AC007979BA79920001FA02F211460C4A0B43A0
:1003BC00136005E000BF04E000BF02E000BF00E0F6
:1003CC0000BF00BF0C37BD4680BC70470008014021
:1003DC0004080140000C0140040C014000100140D5
:1003EC000410014080B483B000AF0346FB710B4690
:1003FC00BB7113467B71BB790F2B67D8FB79022B32
:10040C0040D0022B5BDC002B02D0012B1DD056E020
:10041C007B79012B0AD1304B1B68BA79012101FA87
:10042C0002F211462C4A0B4313604AE07B79002BF5
:10043C0047D1294B1B68BA79012101FA02F2D24348
:10044C001146254A0B4013603BE07B79012B0AD106
:10045C00224B1B68BA79012101FA02F211461F4A9C
:10046C000B4313602FE07B79002B2CD11B4B1B68AB
:10047C00BA79012101FA02F2D2431146174A0B4014
:10048C00136020E07B79012B0AD1154B1B68BA79DC
:10049C00012101FA02F21146114A0B43136014E0D8
:1004AC007B79002B11D10E4B1B68BA79012101FA13
:1004BC0002F2D24311460A4A0B40136005E000BF1A
:1004CC0004E000BF02E000BF00E000BF00BF0C373B
:1004DC00BD4680BC704700BF0C0801400C0C0140AD
:1004EC000C10014080B400AF044B81221A60044B05
:1004FC0000221A6000BFBD4680BC7047001002404D
:10050C000410024080B483B000AF03460A46FB716E
:10051C001346BB71BB791F2B2AD8FB79022B1CD03D
:10052C00022B25DC002B02D0012B0BD020E0134B2F
:10053C001B68BA79012101FA02F211460F4A0B43EA
:10054C00136015E00E4B1B68BA79012101FA02F217
:10055C0011460B4A0B4313600AE00A4B1B68BA792D
:10056C00012101FA02F21146064A0B43136000BF47
:10057C0000BF0C37BD4680BC704700BF1410024052
:10058C001C1002401810024080B400AF094B00222E
:10059C001A60084B00229A60064B00225A60054BE9
:1005AC001B68044A23F48033136000BFBD4680BC33
:1005BC00704700BF10E000E080B500AF0A4B1B682D
:1005CC00002B0ED0094B1B78002B01D1FFF7DCFF61
:1005DC00054B1B689847064B1B68054A23F4803370
:1005EC00136000BF80BD00BF5C00002060000020D5
:1005FC0010E000E080B500AFFFF774FF022102208D
:10060C00FFF780FF022200210020FFF713FE0022DB
:10061C0000210020FFF7E6FE4FF4FA70FFF7EAFD29
:10062C00012200210020FFF7DDFE4FF4FA70FFF7E6
:10063C00E1FDECE780B400AFFEE780B400AFFEE76D
:10064C0080B400AFFEE780B400AFFEE780B400AF2B
:10065C00FEE780B400AF00BFBD4680BC704780B4DD
:10066C0000AF00BFBD4680BC704780B400AF00BF78
:10067C00BD4680BC704780B400AF00BFBD4680BC97
:10068C0070470000FFF7F7FF0B480C490C4A00239A
:10069C0002E0D458C4500433C4188C42F9D3094A2C
:1006AC00094C002301E013600432A242FBD300F09A
:1006BC000FF8FFF79FFF704700000020000000209C
:1006CC00440700080000002064000020FEE7000042
:1006DC0070B500260C4D0D4C641BA410A64209D11C
:1006EC0000F01AF800260A4D0A4C641BA410A6420E
:1006FC0005D170BD55F8043B98470136EEE755F827
:10070C00043B98470136F2E73C0700083C07000819
:10071C003C07000840070008F8B500BFF8BC08BC4F
:10072C009E467047F8B500BFF8BC08BC9E467047A3
:04073C00310100087F
:040740000D0100089F
:040000050800069158
:00000001FF
